{
  "contractName": "Salad",
  "abi": [
    {
      "inputs": [
        {
          "internalType": "uint8",
          "name": "_depositLockPeriodInBlocks",
          "type": "uint8"
        },
        {
          "internalType": "uint8",
          "name": "_dealIntervalInBlocks",
          "type": "uint8"
        },
        {
          "internalType": "address",
          "name": "_relayer",
          "type": "address"
        },
        {
          "internalType": "uint8",
          "name": "_relayerFeePercent",
          "type": "uint8"
        },
        {
          "internalType": "uint8",
          "name": "_participationThreshold",
          "type": "uint8"
        }
      ],
      "payable": false,
      "stateMutability": "nonpayable",
      "type": "constructor"
    },
    {
      "anonymous": false,
      "inputs": [
        {
          "indexed": true,
          "internalType": "address",
          "name": "_depositor",
          "type": "address"
        },
        {
          "indexed": false,
          "internalType": "uint256",
          "name": "_value",
          "type": "uint256"
        },
        {
          "indexed": false,
          "internalType": "uint256",
          "name": "_balance",
          "type": "uint256"
        }
      ],
      "name": "Deposit",
      "type": "event"
    },
    {
      "anonymous": false,
      "inputs": [
        {
          "indexed": true,
          "internalType": "bytes32",
          "name": "_dealId",
          "type": "bytes32"
        },
        {
          "indexed": false,
          "internalType": "uint256",
          "name": "_amount",
          "type": "uint256"
        },
        {
          "indexed": false,
          "internalType": "address[]",
          "name": "_recipients",
          "type": "address[]"
        }
      ],
      "name": "Distribute",
      "type": "event"
    },
    {
      "anonymous": false,
      "inputs": [
        {
          "indexed": true,
          "internalType": "address",
          "name": "user",
          "type": "address"
        },
        {
          "indexed": true,
          "internalType": "bytes32",
          "name": "_dealId",
          "type": "bytes32"
        },
        {
          "indexed": false,
          "internalType": "uint256",
          "name": "_startTime",
          "type": "uint256"
        },
        {
          "indexed": false,
          "internalType": "uint256",
          "name": "_deposit",
          "type": "uint256"
        },
        {
          "indexed": false,
          "internalType": "uint256",
          "name": "_numParticipants",
          "type": "uint256"
        }
      ],
      "name": "NewDeal",
      "type": "event"
    },
    {
      "anonymous": false,
      "inputs": [
        {
          "indexed": true,
          "internalType": "address",
          "name": "previousOwner",
          "type": "address"
        },
        {
          "indexed": true,
          "internalType": "address",
          "name": "newOwner",
          "type": "address"
        }
      ],
      "name": "OwnershipTransferred",
      "type": "event"
    },
    {
      "anonymous": false,
      "inputs": [
        {
          "indexed": true,
          "internalType": "address",
          "name": "_depositor",
          "type": "address"
        },
        {
          "indexed": false,
          "internalType": "uint256",
          "name": "_value",
          "type": "uint256"
        }
      ],
      "name": "Withdraw",
      "type": "event"
    },
    {
      "constant": true,
      "inputs": [
        {
          "internalType": "address",
          "name": "",
          "type": "address"
        }
      ],
      "name": "balances",
      "outputs": [
        {
          "internalType": "uint256",
          "name": "amount",
          "type": "uint256"
        },
        {
          "internalType": "uint256",
          "name": "lastDepositBlockNumber",
          "type": "uint256"
        }
      ],
      "payable": false,
      "stateMutability": "view",
      "type": "function"
    },
    {
      "constant": true,
      "inputs": [
        {
          "internalType": "uint256",
          "name": "",
          "type": "uint256"
        }
      ],
      "name": "dealIds",
      "outputs": [
        {
          "internalType": "bytes32",
          "name": "",
          "type": "bytes32"
        }
      ],
      "payable": false,
      "stateMutability": "view",
      "type": "function"
    },
    {
      "constant": true,
      "inputs": [],
      "name": "dealIntervalInBlocks",
      "outputs": [
        {
          "internalType": "uint8",
          "name": "",
          "type": "uint8"
        }
      ],
      "payable": false,
      "stateMutability": "view",
      "type": "function"
    },
    {
      "constant": true,
      "inputs": [
        {
          "internalType": "bytes32",
          "name": "",
          "type": "bytes32"
        }
      ],
      "name": "deals",
      "outputs": [
        {
          "internalType": "address",
          "name": "organizer",
          "type": "address"
        },
        {
          "internalType": "uint256",
          "name": "startTime",
          "type": "uint256"
        },
        {
          "internalType": "uint256",
          "name": "deposit",
          "type": "uint256"
        },
        {
          "internalType": "enum Salad.DealStatus",
          "name": "status",
          "type": "uint8"
        }
      ],
      "payable": false,
      "stateMutability": "view",
      "type": "function"
    },
    {
      "constant": true,
      "inputs": [],
      "name": "depositLockPeriodInBlocks",
      "outputs": [
        {
          "internalType": "uint8",
          "name": "",
          "type": "uint8"
        }
      ],
      "payable": false,
      "stateMutability": "view",
      "type": "function"
    },
    {
      "constant": true,
      "inputs": [],
      "name": "isOwner",
      "outputs": [
        {
          "internalType": "bool",
          "name": "",
          "type": "bool"
        }
      ],
      "payable": false,
      "stateMutability": "view",
      "type": "function"
    },
    {
      "constant": true,
      "inputs": [],
      "name": "lastExecutionBlockNumber",
      "outputs": [
        {
          "internalType": "uint256",
          "name": "",
          "type": "uint256"
        }
      ],
      "payable": false,
      "stateMutability": "view",
      "type": "function"
    },
    {
      "constant": true,
      "inputs": [],
      "name": "owner",
      "outputs": [
        {
          "internalType": "address",
          "name": "",
          "type": "address"
        }
      ],
      "payable": false,
      "stateMutability": "view",
      "type": "function"
    },
    {
      "constant": true,
      "inputs": [],
      "name": "participationThreshold",
      "outputs": [
        {
          "internalType": "uint8",
          "name": "",
          "type": "uint8"
        }
      ],
      "payable": false,
      "stateMutability": "view",
      "type": "function"
    },
    {
      "constant": true,
      "inputs": [],
      "name": "relayerFeePercent",
      "outputs": [
        {
          "internalType": "uint8",
          "name": "",
          "type": "uint8"
        }
      ],
      "payable": false,
      "stateMutability": "view",
      "type": "function"
    },
    {
      "constant": false,
      "inputs": [],
      "name": "renounceOwnership",
      "outputs": [],
      "payable": false,
      "stateMutability": "nonpayable",
      "type": "function"
    },
    {
      "constant": false,
      "inputs": [
        {
          "internalType": "address",
          "name": "newOwner",
          "type": "address"
        }
      ],
      "name": "transferOwnership",
      "outputs": [],
      "payable": false,
      "stateMutability": "nonpayable",
      "type": "function"
    },
    {
      "constant": false,
      "inputs": [
        {
          "internalType": "uint8",
          "name": "_intervalInBlocks",
          "type": "uint8"
        }
      ],
      "name": "setDealInterval",
      "outputs": [],
      "payable": false,
      "stateMutability": "nonpayable",
      "type": "function"
    },
    {
      "constant": false,
      "inputs": [
        {
          "internalType": "uint8",
          "name": "_nbParticipants",
          "type": "uint8"
        }
      ],
      "name": "setParticipationThreshold",
      "outputs": [],
      "payable": false,
      "stateMutability": "nonpayable",
      "type": "function"
    },
    {
      "constant": false,
      "inputs": [
        {
          "internalType": "address",
          "name": "_relayer",
          "type": "address"
        }
      ],
      "name": "authorizeRelayer",
      "outputs": [],
      "payable": false,
      "stateMutability": "nonpayable",
      "type": "function"
    },
    {
      "constant": false,
      "inputs": [
        {
          "internalType": "address",
          "name": "_relayer",
          "type": "address"
        }
      ],
      "name": "denyRelayer",
      "outputs": [],
      "payable": false,
      "stateMutability": "nonpayable",
      "type": "function"
    },
    {
      "constant": false,
      "inputs": [
        {
          "internalType": "uint256",
          "name": "_amount",
          "type": "uint256"
        },
        {
          "internalType": "address[]",
          "name": "_participants",
          "type": "address[]"
        },
        {
          "internalType": "uint256",
          "name": "_nonce",
          "type": "uint256"
        }
      ],
      "name": "newDeal",
      "outputs": [],
      "payable": false,
      "stateMutability": "nonpayable",
      "type": "function"
    },
    {
      "constant": false,
      "inputs": [],
      "name": "makeDeposit",
      "outputs": [],
      "payable": true,
      "stateMutability": "payable",
      "type": "function"
    },
    {
      "constant": false,
      "inputs": [],
      "name": "withdraw",
      "outputs": [],
      "payable": true,
      "stateMutability": "payable",
      "type": "function"
    },
    {
      "constant": true,
      "inputs": [
        {
          "internalType": "address",
          "name": "_account",
          "type": "address"
        }
      ],
      "name": "getParticipantBalance",
      "outputs": [
        {
          "internalType": "uint256",
          "name": "",
          "type": "uint256"
        }
      ],
      "payable": false,
      "stateMutability": "view",
      "type": "function"
    },
    {
      "constant": false,
      "inputs": [
        {
          "internalType": "uint256",
          "name": "_amount",
          "type": "uint256"
        },
        {
          "internalType": "address[]",
          "name": "_participants",
          "type": "address[]"
        },
        {
          "internalType": "uint256",
          "name": "_nonce",
          "type": "uint256"
        }
      ],
      "name": "_generateDealIdMessage",
      "outputs": [
        {
          "internalType": "bytes",
          "name": "",
          "type": "bytes"
        }
      ],
      "payable": false,
      "stateMutability": "nonpayable",
      "type": "function"
    },
    {
      "constant": false,
      "inputs": [
        {
          "internalType": "uint256",
          "name": "_amount",
          "type": "uint256"
        },
        {
          "internalType": "address[]",
          "name": "_participants",
          "type": "address[]"
        },
        {
          "internalType": "uint256",
          "name": "_nonce",
          "type": "uint256"
        }
      ],
      "name": "generateDealId",
      "outputs": [
        {
          "internalType": "bytes32",
          "name": "",
          "type": "bytes32"
        }
      ],
      "payable": false,
      "stateMutability": "nonpayable",
      "type": "function"
    },
    {
      "constant": false,
      "inputs": [
        {
          "internalType": "uint256",
          "name": "_dealId",
          "type": "uint256"
        },
        {
          "internalType": "address payable[]",
          "name": "_recipients",
          "type": "address[]"
        }
      ],
      "name": "distribute",
      "outputs": [],
      "payable": false,
      "stateMutability": "nonpayable",
      "type": "function"
    },
    {
      "constant": true,
      "inputs": [
        {
          "internalType": "uint8",
          "name": "_status",
          "type": "uint8"
        }
      ],
      "name": "listDeals",
      "outputs": [
        {
          "internalType": "bytes32[]",
          "name": "",
          "type": "bytes32[]"
        },
        {
          "internalType": "address[]",
          "name": "",
          "type": "address[]"
        },
        {
          "internalType": "uint256[]",
          "name": "",
          "type": "uint256[]"
        },
        {
          "internalType": "uint256[]",
          "name": "",
          "type": "uint256[]"
        }
      ],
      "payable": false,
      "stateMutability": "view",
      "type": "function"
    },
    {
      "constant": true,
      "inputs": [
        {
          "internalType": "bytes32",
          "name": "_dealId",
          "type": "bytes32"
        }
      ],
      "name": "dealStatus",
      "outputs": [
        {
          "internalType": "uint256",
          "name": "",
          "type": "uint256"
        },
        {
          "internalType": "uint256",
          "name": "",
          "type": "uint256"
        },
        {
          "internalType": "uint256",
          "name": "",
          "type": "uint256"
        }
      ],
      "payable": false,
      "stateMutability": "view",
      "type": "function"
    }
  ],
  "bytecode": "0x60806040523480156200001157600080fd5b5060405162002e6d38038062002e6d833981810160405260a08110156200003757600080fd5b810190808051906020019092919080519060200190929190805190602001909291908051906020019092919080519060200190929190505050620000806200021f60201b60201c565b6000806101000a81548173ffffffffffffffffffffffffffffffffffffffff021916908373ffffffffffffffffffffffffffffffffffffffff1602179055506000809054906101000a900473ffffffffffffffffffffffffffffffffffffffff1673ffffffffffffffffffffffffffffffffffffffff16600073ffffffffffffffffffffffffffffffffffffffff167f8be0079c531659141344cd1fd0a4f28419497f9722a3daafe3b4186f6b6457e060405160405180910390a384600560006101000a81548160ff021916908360ff16021790555083600560016101000a81548160ff021916908360ff16021790555081600560026101000a81548160ff021916908360ff16021790555080600560036101000a81548160ff021916908360ff1602179055504360068190555060038390806001815401808255809150509060018203906000526020600020016000909192909190916101000a81548173ffffffffffffffffffffffffffffffffffffffff021916908373ffffffffffffffffffffffffffffffffffffffff16021790555050505050505062000227565b600033905090565b612c3680620002376000396000f3fe6080604052600436106101665760003560e01c80638f32d59b116100d1578063ce5076551161008a578063ef1774a211610064578063ef1774a214610ae3578063f2fde38b14610b14578063f899b23c14610b65578063fce7bbd114610bb657610166565b8063ce5076551461083f578063dcb230471461092c578063e9560b3b14610a7e57610166565b80638f32d59b1461062e57806395ad52271461065d578063a625033d14610688578063bb808bf914610761578063bdace7081461079f578063c6620db3146107f057610166565b80636071f7a8116101235780636071f7a8146102b7578063715018a61461042257806379a5b02a1461043957806381cd872a1461046a57806385e3c463146105085780638da5cb5b146105d757610166565b806304a18e3d1461016b578063264432851461019c57806327e235e3146101f95780633ccfd60b1461026557806340732c891461026f57806349ba677914610279575b600080fd5b34801561017757600080fd5b50610180610be7565b604051808260ff1660ff16815260200191505060405180910390f35b3480156101a857600080fd5b506101d5600480360360208110156101bf57600080fd5b8101908080359060200190929190505050610bfa565b60405180848152602001838152602001828152602001935050505060405180910390f35b34801561020557600080fd5b506102486004803603602081101561021c57600080fd5b81019080803573ffffffffffffffffffffffffffffffffffffffff169060200190929190505050610c68565b604051808381526020018281526020019250505060405180910390f35b61026d610c8c565b005b610277610e77565b005b34801561028557600080fd5b506102b56004803603602081101561029c57600080fd5b81019080803560ff169060200190929190505050611069565b005b3480156102c357600080fd5b506102f3600480360360208110156102da57600080fd5b81019080803560ff169060200190929190505050611101565b6040518080602001806020018060200180602001858103855289818151815260200191508051906020019060200280838360005b83811015610342578082015181840152602081019050610327565b50505050905001858103845288818151815260200191508051906020019060200280838360005b83811015610384578082015181840152602081019050610369565b50505050905001858103835287818151815260200191508051906020019060200280838360005b838110156103c65780820151818401526020810190506103ab565b50505050905001858103825286818151815260200191508051906020019060200280838360005b838110156104085780820151818401526020810190506103ed565b505050509050019850505050505050505060405180910390f35b34801561042e57600080fd5b50610437611413565b005b34801561044557600080fd5b5061044e61154c565b604051808260ff1660ff16815260200191505060405180910390f35b34801561047657600080fd5b506104a36004803603602081101561048d57600080fd5b810190808035906020019092919050505061155f565b604051808573ffffffffffffffffffffffffffffffffffffffff1673ffffffffffffffffffffffffffffffffffffffff1681526020018481526020018381526020018260028111156104f157fe5b60ff16815260200194505050505060405180910390f35b34801561051457600080fd5b506105d56004803603604081101561052b57600080fd5b81019080803590602001909291908035906020019064010000000081111561055257600080fd5b82018360208201111561056457600080fd5b8035906020019184602083028401116401000000008311171561058657600080fd5b919080806020026020016040519081016040528093929190818152602001838360200280828437600081840152601f19601f8201169050808301925050505050505091929192905050506115bc565b005b3480156105e357600080fd5b506105ec611b56565b604051808273ffffffffffffffffffffffffffffffffffffffff1673ffffffffffffffffffffffffffffffffffffffff16815260200191505060405180910390f35b34801561063a57600080fd5b50610643611b7f565b604051808215151515815260200191505060405180910390f35b34801561066957600080fd5b50610672611bdd565b6040518082815260200191505060405180910390f35b34801561069457600080fd5b5061075f600480360360608110156106ab57600080fd5b8101908080359060200190929190803590602001906401000000008111156106d257600080fd5b8201836020820111156106e457600080fd5b8035906020019184602083028401116401000000008311171561070657600080fd5b919080806020026020016040519081016040528093929190818152602001838360200280828437600081840152601f19601f82011690508083019250505050505050919291929080359060200190929190505050611be3565b005b34801561076d57600080fd5b5061079d6004803603602081101561078457600080fd5b81019080803560ff169060200190929190505050612029565b005b3480156107ab57600080fd5b506107ee600480360360208110156107c257600080fd5b81019080803573ffffffffffffffffffffffffffffffffffffffff1690602001909291905050506120c1565b005b3480156107fc57600080fd5b506108296004803603602081101561081357600080fd5b8101908080359060200190929190505050612205565b6040518082815260200191505060405180910390f35b34801561084b57600080fd5b506109166004803603606081101561086257600080fd5b81019080803590602001909291908035906020019064010000000081111561088957600080fd5b82018360208201111561089b57600080fd5b803590602001918460208302840111640100000000831117156108bd57600080fd5b919080806020026020016040519081016040528093929190818152602001838360200280828437600081840152601f19601f82011690508083019250505050505050919291929080359060200190929190505050612226565b6040518082815260200191505060405180910390f35b34801561093857600080fd5b50610a036004803603606081101561094f57600080fd5b81019080803590602001909291908035906020019064010000000081111561097657600080fd5b82018360208201111561098857600080fd5b803590602001918460208302840111640100000000831117156109aa57600080fd5b919080806020026020016040519081016040528093929190818152602001838360200280828437600081840152601f19601f8201169050808301925050505050505091929192908035906020019092919050505061224f565b6040518080602001828103825283818151815260200191508051906020019080838360005b83811015610a43578082015181840152602081019050610a28565b50505050905090810190601f168015610a705780820380516001836020036101000a031916815260200191505b509250505060405180910390f35b348015610a8a57600080fd5b50610acd60048036036020811015610aa157600080fd5b81019080803573ffffffffffffffffffffffffffffffffffffffff16906020019092919050505061231c565b6040518082815260200191505060405180910390f35b348015610aef57600080fd5b50610af8612368565b604051808260ff1660ff16815260200191505060405180910390f35b348015610b2057600080fd5b50610b6360048036036020811015610b3757600080fd5b81019080803573ffffffffffffffffffffffffffffffffffffffff16906020019092919050505061237b565b005b348015610b7157600080fd5b50610bb460048036036020811015610b8857600080fd5b81019080803573ffffffffffffffffffffffffffffffffffffffff169060200190929190505050612401565b005b348015610bc257600080fd5b50610bcb6124e4565b604051808260ff1660ff16815260200191505060405180910390f35b600560009054906101000a900460ff1681565b600080600080600160008681526020019081526020016000206003018054905090506000600160008781526020019081526020016000206002015490506000600160008881526020019081526020016000206004018054905090508282829550955095505050509193909250565b60026020528060005260406000206000915090508060000154908060010154905082565b6000610cf5600560009054906101000a900460ff1660ff16600260003373ffffffffffffffffffffffffffffffffffffffff1673ffffffffffffffffffffffffffffffffffffffff168152602001908152602001600020600101546124f790919063ffffffff16565b9050438110610d4f576040517f08c379a0000000000000000000000000000000000000000000000000000000008152600401808060200182810382526028815260200180612bda6028913960400191505060405180910390fd5b6000600260003373ffffffffffffffffffffffffffffffffffffffff1673ffffffffffffffffffffffffffffffffffffffff1681526020019081526020016000206000015490503373ffffffffffffffffffffffffffffffffffffffff166108fc829081150290604051600060405180830381858888f19350505050158015610ddc573d6000803e3d6000fd5b506000600260003373ffffffffffffffffffffffffffffffffffffffff1673ffffffffffffffffffffffffffffffffffffffff168152602001908152602001600020600001819055503373ffffffffffffffffffffffffffffffffffffffff167f884edad9ce6fa2440d8a54cc123490eb96d2768479d49ff9c7366125a9424364826040518082815260200191505060405180910390a25050565b60003411610eed576040517f08c379a000000000000000000000000000000000000000000000000000000000815260040180806020018281038252601f8152602001807f4465706f7369742076616c7565206d75737420626520706f7369746976652e0081525060200191505060405180910390fd5b610f4234600260003373ffffffffffffffffffffffffffffffffffffffff1673ffffffffffffffffffffffffffffffffffffffff168152602001908152602001600020600001546124f790919063ffffffff16565b600260003373ffffffffffffffffffffffffffffffffffffffff1673ffffffffffffffffffffffffffffffffffffffff1681526020019081526020016000206000018190555043600260003373ffffffffffffffffffffffffffffffffffffffff1673ffffffffffffffffffffffffffffffffffffffff168152602001908152602001600020600101819055503373ffffffffffffffffffffffffffffffffffffffff167f90890809c654f11d6e72a28fa60149770a0d11ec6c92319d6ceb2bb0a4ea1a1534600260003373ffffffffffffffffffffffffffffffffffffffff1673ffffffffffffffffffffffffffffffffffffffff16815260200190815260200160002060000154604051808381526020018281526020019250505060405180910390a2565b611071611b7f565b6110e3576040517f08c379a00000000000000000000000000000000000000000000000000000000081526004018080602001828103825260208152602001807f4f776e61626c653a2063616c6c6572206973206e6f7420746865206f776e657281525060200191505060405180910390fd5b80600560036101000a81548160ff021916908360ff16021790555050565b606080606080600080905060008090505b60048054905081101561119c5760006004828154811061112e57fe5b906000526020600020015490508760ff166001600083815260200190815260200160002060050160009054906101000a900460ff16600281111561116e57fe5b60ff16141561118e5761118b6001846124f790919063ffffffff16565b92505b508080600101915050611112565b506060816040519080825280602002602001820160405280156111ce5781602001602082028038833980820191505090505b5090506060826040519080825280602002602001820160405280156112025781602001602082028038833980820191505090505b5090506060836040519080825280602002602001820160405280156112365781602001602082028038833980820191505090505b50905060608460405190808252806020026020018201604052801561126a5781602001602082028038833980820191505090505b509050600080905060008090505b6004805490508110156113f95760006004828154811061129457fe5b906000526020600020015490508c60ff166001600083815260200190815260200160002060050160009054906101000a900460ff1660028111156112d457fe5b60ff1614156113eb57808784815181106112ea57fe5b6020026020010181815250506001600082815260200190815260200160002060000160009054906101000a900473ffffffffffffffffffffffffffffffffffffffff1686848151811061133957fe5b602002602001019073ffffffffffffffffffffffffffffffffffffffff16908173ffffffffffffffffffffffffffffffffffffffff1681525050600160008281526020019081526020016000206002015485848151811061139657fe5b60200260200101818152505060016000828152602001908152602001600020600301805490508484815181106113c857fe5b6020026020010181815250506113e86001846124f790919063ffffffff16565b92505b508080600101915050611278565b508484848499509950995099505050505050509193509193565b61141b611b7f565b61148d576040517f08c379a00000000000000000000000000000000000000000000000000000000081526004018080602001828103825260208152602001807f4f776e61626c653a2063616c6c6572206973206e6f7420746865206f776e657281525060200191505060405180910390fd5b600073ffffffffffffffffffffffffffffffffffffffff166000809054906101000a900473ffffffffffffffffffffffffffffffffffffffff1673ffffffffffffffffffffffffffffffffffffffff167f8be0079c531659141344cd1fd0a4f28419497f9722a3daafe3b4186f6b6457e060405160405180910390a360008060006101000a81548173ffffffffffffffffffffffffffffffffffffffff021916908373ffffffffffffffffffffffffffffffffffffffff160217905550565b600560039054906101000a900460ff1681565b60016020528060005260406000206000915090508060000160009054906101000a900473ffffffffffffffffffffffffffffffffffffffff16908060010154908060020154908060050160009054906101000a900460ff16905084565b60008260001b9050600160028111156115d157fe5b6001600083815260200190815260200160002060050160009054906101000a900460ff16600281111561160057fe5b14611673576040517f08c379a00000000000000000000000000000000000000000000000000000000081526004018080602001828103825260178152602001807f4465616c206973206e6f742065786563757461626c652e00000000000000000081525060200191505060405180910390fd5b8160016000838152602001908152602001600020600401908051906020019061169d929190612a17565b50606082516040519080825280602002602001820160405280156116d05781602001602082028038833980820191505090505b50905060008090505b8351811015611a795760016000848152602001908152602001600020600201546002600060016000878152602001908152602001600020600301848154811061171e57fe5b9060005260206000200160009054906101000a900473ffffffffffffffffffffffffffffffffffffffff1673ffffffffffffffffffffffffffffffffffffffff1673ffffffffffffffffffffffffffffffffffffffff1681526020019081526020016000206000015410156117fb576040517f08c379a000000000000000000000000000000000000000000000000000000000815260040180806020018281038252601f8152602001807f4e6f7420656e6f756768206465706f73697420746f207472616e736665722e0081525060200191505060405180910390fd5b83818151811061180757fe5b602002602001015173ffffffffffffffffffffffffffffffffffffffff166108fc60016000868152602001908152602001600020600201549081150290604051600060405180830381858888f193505050506118cb576040517f08c379a000000000000000000000000000000000000000000000000000000000815260040180806020018281038252601c8152602001807f556e61626c6520746f2064697374726962757465206465706f7369740000000081525060200191505060405180910390fd5b61198160016000858152602001908152602001600020600201546002600060016000888152602001908152602001600020600301858154811061190a57fe5b9060005260206000200160009054906101000a900473ffffffffffffffffffffffffffffffffffffffff1673ffffffffffffffffffffffffffffffffffffffff1673ffffffffffffffffffffffffffffffffffffffff1681526020019081526020016000206000015461257f90919063ffffffff16565b600260006001600087815260200190815260200160002060030184815481106119a657fe5b9060005260206000200160009054906101000a900473ffffffffffffffffffffffffffffffffffffffff1673ffffffffffffffffffffffffffffffffffffffff1673ffffffffffffffffffffffffffffffffffffffff16815260200190815260200160002060000181905550838181518110611a1e57fe5b6020026020010151828281518110611a3257fe5b602002602001019073ffffffffffffffffffffffffffffffffffffffff16908173ffffffffffffffffffffffffffffffffffffffff168152505080806001019150506116d9565b5060026001600084815260200190815260200160002060050160006101000a81548160ff02191690836002811115611aad57fe5b021790555043600681905550817f97807d6bace8dbfba7b143b71b9ff73c5e12dc0b64707ba8373d5693af47766a6001600085815260200190815260200160002060020154836040518083815260200180602001828103825283818151815260200191508051906020019060200280838360005b83811015611b3c578082015181840152602081019050611b21565b50505050905001935050505060405180910390a250505050565b60008060009054906101000a900473ffffffffffffffffffffffffffffffffffffffff16905090565b60008060009054906101000a900473ffffffffffffffffffffffffffffffffffffffff1673ffffffffffffffffffffffffffffffffffffffff16611bc16125c9565b73ffffffffffffffffffffffffffffffffffffffff1614905090565b60065481565b600080905060008090505b600380549050811015611c7c573373ffffffffffffffffffffffffffffffffffffffff1660038281548110611c1f57fe5b9060005260206000200160009054906101000a900473ffffffffffffffffffffffffffffffffffffffff1673ffffffffffffffffffffffffffffffffffffffff161415611c6f5760019150611c7c565b8080600101915050611bee565b5080611cf0576040517f08c379a00000000000000000000000000000000000000000000000000000000081526004018080602001828103825260178152602001807f52656c61796572206e6f7420617574686f72697a65642e00000000000000000081525060200191505060405180910390fd5b6000611d19600560019054906101000a900460ff1660ff166006546124f790919063ffffffff16565b9050438110611d73576040517f08c379a0000000000000000000000000000000000000000000000000000000008152600401808060200182810382526022815260200180612bb86022913960400191505060405180910390fd5b60008090505b8451811015611e3d578560026000878481518110611d9357fe5b602002602001015173ffffffffffffffffffffffffffffffffffffffff1673ffffffffffffffffffffffffffffffffffffffff168152602001908152602001600020600001541015611e30576040517f08c379a0000000000000000000000000000000000000000000000000000000008152600401808060200182810382526023815260200180612b956023913960400191505060405180910390fd5b8080600101915050611d79565b506000611e4b868686612226565b90506004819080600181540180825580915050906001820390600052602060002001600090919290919091505550336001600083815260200190815260200160002060000160006101000a81548173ffffffffffffffffffffffffffffffffffffffff021916908373ffffffffffffffffffffffffffffffffffffffff16021790555042600160008381526020019081526020016000206001018190555085600160008381526020019081526020016000206002018190555084600160008381526020019081526020016000206003019080519060200190611f2e929190612aa1565b508451604051908082528060200260200182016040528015611f5f5781602001602082028038833980820191505090505b50600160008381526020019081526020016000206004019080519060200190611f89929190612aa1565b50600180600083815260200190815260200160002060050160006101000a81548160ff02191690836002811115611fbc57fe5b0217905550803373ffffffffffffffffffffffffffffffffffffffff167f0788e7395540c533725f2ef3e7dc8a880fd27117bcd894404df09e20e9259b314289895160405180848152602001838152602001828152602001935050505060405180910390a3505050505050565b612031611b7f565b6120a3576040517f08c379a00000000000000000000000000000000000000000000000000000000081526004018080602001828103825260208152602001807f4f776e61626c653a2063616c6c6572206973206e6f7420746865206f776e657281525060200191505060405180910390fd5b80600560016101000a81548160ff021916908360ff16021790555050565b6120c9611b7f565b61213b576040517f08c379a00000000000000000000000000000000000000000000000000000000081526004018080602001828103825260208152602001807f4f776e61626c653a2063616c6c6572206973206e6f7420746865206f776e657281525060200191505060405180910390fd5b60008090505b600380549050811015612201578173ffffffffffffffffffffffffffffffffffffffff166003828154811061217257fe5b9060005260206000200160009054906101000a900473ffffffffffffffffffffffffffffffffffffffff1673ffffffffffffffffffffffffffffffffffffffff1614156121f457600381815481106121c657fe5b9060005260206000200160006101000a81549073ffffffffffffffffffffffffffffffffffffffff02191690555b8080600101915050612141565b5050565b6004818154811061221257fe5b906000526020600020016000915090505481565b6000606061223585858561224f565b905060008180519060200120905080925050509392505050565b6060806122648161225f876125d1565b6125e8565b905061227184518261262a565b905060008090505b84518110156122cc576122bd826122b887848151811061229557fe5b602002602001015173ffffffffffffffffffffffffffffffffffffffff16612659565b6125e8565b91508080600101915050612279565b5060003390506122fa826122f58373ffffffffffffffffffffffffffffffffffffffff16612659565b6125e8565b915061230e82612309866125d1565b6125e8565b915081925050509392505050565b6000600260008373ffffffffffffffffffffffffffffffffffffffff1673ffffffffffffffffffffffffffffffffffffffff168152602001908152602001600020600001549050919050565b600560029054906101000a900460ff1681565b612383611b7f565b6123f5576040517f08c379a00000000000000000000000000000000000000000000000000000000081526004018080602001828103825260208152602001807f4f776e61626c653a2063616c6c6572206973206e6f7420746865206f776e657281525060200191505060405180910390fd5b6123fe8161268a565b50565b612409611b7f565b61247b576040517f08c379a00000000000000000000000000000000000000000000000000000000081526004018080602001828103825260208152602001807f4f776e61626c653a2063616c6c6572206973206e6f7420746865206f776e657281525060200191505060405180910390fd5b60038190806001815401808255809150509060018203906000526020600020016000909192909190916101000a81548173ffffffffffffffffffffffffffffffffffffffff021916908373ffffffffffffffffffffffffffffffffffffffff1602179055505050565b600560019054906101000a900460ff1681565b600080828401905083811015612575576040517f08c379a000000000000000000000000000000000000000000000000000000000815260040180806020018281038252601b8152602001807f536166654d6174683a206164646974696f6e206f766572666c6f77000000000081525060200191505060405180910390fd5b8091505092915050565b60006125c183836040518060400160405280601e81526020017f536166654d6174683a207375627472616374696f6e206f766572666c6f7700008152506127ce565b905092915050565b600033905090565b60606125e18260001b602061288e565b9050919050565b606061262282612614612605855167ffffffffffffffff166128ff565b8661292490919063ffffffff16565b61292490919063ffffffff16565b905092915050565b60606126516126428467ffffffffffffffff166128ff565b8361292490919063ffffffff16565b905092915050565b606061268360608373ffffffffffffffffffffffffffffffffffffffff16901b60001b601461288e565b9050919050565b600073ffffffffffffffffffffffffffffffffffffffff168173ffffffffffffffffffffffffffffffffffffffff161415612710576040517f08c379a0000000000000000000000000000000000000000000000000000000008152600401808060200182810382526026815260200180612b6f6026913960400191505060405180910390fd5b8073ffffffffffffffffffffffffffffffffffffffff166000809054906101000a900473ffffffffffffffffffffffffffffffffffffffff1673ffffffffffffffffffffffffffffffffffffffff167f8be0079c531659141344cd1fd0a4f28419497f9722a3daafe3b4186f6b6457e060405160405180910390a3806000806101000a81548173ffffffffffffffffffffffffffffffffffffffff021916908373ffffffffffffffffffffffffffffffffffffffff16021790555050565b600083831115829061287b576040517f08c379a00000000000000000000000000000000000000000000000000000000081526004018080602001828103825283818151815260200191508051906020019080838360005b83811015612840578082015181840152602081019050612825565b50505050905090810190601f16801561286d5780820380516001836020036101000a031916815260200191505b509250505060405180910390fd5b5060008385039050809150509392505050565b606060208260ff1611156128a157600080fd5b8160ff166040519080825280601f01601f1916602001820160405280156128d75781602001600182028038833980820191505090505b50905060006008836020030260ff16600019901b8460001c1690508060208301525092915050565b606061291d60c08367ffffffffffffffff16901b60001b600861288e565b9050919050565b60608082518451016040519080825280601f01601f19166020018201604052801561295e5781602001600182028038833980820191505090505b50905060008061296d866129bc565b9150915060008061297d876129bc565b91509150600061298c866129bc565b509050600084820190506129a18683876129ce565b6129ac8482856129ce565b8697505050505050505092915050565b60008082519050602083019150915091565b5b602081106129f257825182526020820191506020830192506020810390506129cf565b60006001826020036101000a0390508019845116818451168181178552505050505050565b828054828255906000526020600020908101928215612a90579160200282015b82811115612a8f5782518260006101000a81548173ffffffffffffffffffffffffffffffffffffffff021916908373ffffffffffffffffffffffffffffffffffffffff16021790555091602001919060010190612a37565b5b509050612a9d9190612b2b565b5090565b828054828255906000526020600020908101928215612b1a579160200282015b82811115612b195782518260006101000a81548173ffffffffffffffffffffffffffffffffffffffff021916908373ffffffffffffffffffffffffffffffffffffffff16021790555091602001919060010190612ac1565b5b509050612b279190612b2b565b5090565b612b6b91905b80821115612b6757600081816101000a81549073ffffffffffffffffffffffffffffffffffffffff021916905550600101612b31565b5090565b9056fe4f776e61626c653a206e6577206f776e657220697320746865207a65726f20616464726573735061727469636970616e742062616c616e636528732920696e73756666696369656e744465616c206372656174696f6e20696e74657276616c206e6f7420726561636865644465706f736974206e6f742079657420617661696c61626c6520666f72207769746864726177616ca265627a7a723158207e4da9e44025334885969b3b53aaf970c322174c3aeb939ca6c21cc5c9c71c2964736f6c634300050c0032",
  "source": "pragma solidity ^0.5.1;\n\nimport \"./ISalad.sol\";\nimport {SaladCommon} from \"./utils/SaladCommon.sol\";\nimport \"openzeppelin-solidity/contracts/math/SafeMath.sol\";\nimport {Bytes} from \"./utils/Bytes.sol\";\nimport \"openzeppelin-solidity/contracts/ownership/Ownable.sol\";\n\ncontract Salad is ISalad, Ownable {\n    using SafeMath for uint256;\n    using Bytes for address;\n    using Bytes for uint256;\n\n    struct Deal {\n        address organizer;\n        uint startTime;\n        uint deposit;\n        address[] participants;\n        address[] recipients;\n        DealStatus status;\n    }\n    enum DealStatus {Undefined, Executable, Executed}\n\n    struct Balance {\n        uint amount;\n        uint lastDepositBlockNumber;\n    }\n\n    mapping(bytes32 => Deal) public deals;\n    mapping(address => Balance) public balances;\n    address[] authorizedRelayers;\n    bytes32[] public dealIds;\n    uint8 public depositLockPeriodInBlocks;\n    uint8 public dealIntervalInBlocks;\n    uint8 public relayerFeePercent;\n    uint8 public participationThreshold;\n    uint public lastExecutionBlockNumber;\n    // TODO: Should the contract validate a fix deposit amount for all deals?\n\n    event NewDeal(address indexed user, bytes32 indexed _dealId, uint _startTime, uint _deposit, uint _numParticipants);\n    event Deposit(address indexed _depositor, uint _value, uint _balance);\n    event Withdraw(address indexed _depositor, uint _value);\n    event Distribute(bytes32 indexed _dealId, uint _amount, address[] _recipients);\n\n    modifier onlyEnigma {\n        // TODO: Verify the calling fn in addition to the Enigma contract address\n        // require(msg.sender == owner, \"Only owner can call this function.\");\n        _;\n    }\n\n    modifier onlyRelayer {\n        bool _authorized = false;\n        for (uint i = 0; i < authorizedRelayers.length; i++) {\n            if (authorizedRelayers[i] == msg.sender) {\n                _authorized = true;\n                break;\n            }\n        }\n        require(_authorized, \"Relayer not authorized.\");\n        _;\n    }\n\n    constructor(uint8 _depositLockPeriodInBlocks, uint8 _dealIntervalInBlocks, address _relayer, uint8 _relayerFeePercent, uint8 _participationThreshold) public {\n        depositLockPeriodInBlocks = _depositLockPeriodInBlocks;\n        dealIntervalInBlocks = _dealIntervalInBlocks;\n        relayerFeePercent = _relayerFeePercent;\n        participationThreshold = _participationThreshold;\n        lastExecutionBlockNumber = block.number;\n        authorizedRelayers.push(_relayer);\n    }\n\n    function setDealInterval(uint8 _intervalInBlocks) public onlyOwner {\n        dealIntervalInBlocks = _intervalInBlocks;\n    }\n\n    function setParticipationThreshold(uint8 _nbParticipants) public onlyOwner {\n        participationThreshold = _nbParticipants;\n    }\n\n    function authorizeRelayer(address _relayer ) public onlyOwner {\n        authorizedRelayers.push(_relayer);\n    }\n\n    function denyRelayer(address _relayer) public onlyOwner {\n        for (uint i = 0; i < authorizedRelayers.length; i++) {\n           if (authorizedRelayers[i] == _relayer) {\n               delete authorizedRelayers[i];\n           }\n        }\n    }\n\n    /**\n    * Create a new Pending Deal\n    *\n    * @param _amount The required deposit amount (in Wei)\n    * @param _participants The sender addresses of Deal participants\n    * @param _nonce The nonce (operator's transaction count)\n    */\n    function newDeal(uint _amount, address[] memory _participants, uint _nonce)\n    public onlyRelayer {\n        uint newDealBlockNumber = lastExecutionBlockNumber.add(dealIntervalInBlocks);\n        require(newDealBlockNumber < block.number, \"Deal creation interval not reached\");\n        for (uint i = 0; i < _participants.length; i++) {\n            require(balances[_participants[i]].amount >= _amount, \"Participant balance(s) insufficient\");\n        }\n        bytes32 _dealId = generateDealId(_amount, _participants, _nonce);\n        dealIds.push(_dealId);\n        deals[_dealId].organizer = msg.sender;\n        deals[_dealId].startTime = now;\n        deals[_dealId].deposit = _amount;\n        deals[_dealId].participants = _participants;\n        deals[_dealId].recipients = new address[](_participants.length);\n        deals[_dealId].status = DealStatus.Executable;\n        emit NewDeal(msg.sender, _dealId, now, _amount, _participants.length);\n    }\n\n    /**\n    * Make deposit to own balance for participation in Deals\n    */\n    function makeDeposit()\n    public\n    payable {\n        require(msg.value > 0, \"Deposit value must be positive.\");\n        balances[msg.sender].amount = balances[msg.sender].amount.add(msg.value);\n        balances[msg.sender].lastDepositBlockNumber = block.number;\n        emit Deposit(msg.sender, msg.value, balances[msg.sender].amount);\n    }\n\n    /**\n    * Withdraw from own balance\n    */\n    function withdraw()\n    public\n    payable {\n        uint withdrawBlockNumber = balances[msg.sender].lastDepositBlockNumber.add(depositLockPeriodInBlocks);\n        require(withdrawBlockNumber < block.number, \"Deposit not yet available for withdrawal\");\n        uint amount = balances[msg.sender].amount;\n        msg.sender.transfer(amount);\n        balances[msg.sender].amount = 0;\n        emit Withdraw(msg.sender, amount);\n    }\n\n    /**\n    * Get own balance (in Wei)\n    *\n    * @param _account The participant address\n    */\n    function getParticipantBalance(address _account) public view returns (uint) {\n        return balances[_account].amount;\n    }\n\n    function _generateDealIdMessage(uint _amount, address[] memory _participants, uint _nonce)\n    public\n    returns (bytes memory) {\n        bytes memory _message;\n        _message = SaladCommon.appendMessage(_message, _amount.toBytes());\n        _message = SaladCommon.appendMessageArrayLength(_participants.length, _message);\n        for (uint i = 0; i < _participants.length; i++) {\n            _message = SaladCommon.appendMessage(_message, _participants[i].toBytes());\n        }\n        address _sender = msg.sender;\n        _message = SaladCommon.appendMessage(_message, _sender.toBytes());\n        _message = SaladCommon.appendMessage(_message, _nonce.toBytes());\n        return _message;\n    }\n\n\n    /**\n    * Generate a DealId\n    * H(Amount, Sender Addresses, Relayer Ethereum Address, Relayer Ethereum Nonce)\n    *\n    * @param _amount The required deposit amount (in Wei)\n    * @param _participants The sender addresses of Deal participants\n    * @param _nonce The nonce (operator's transaction count)\n    */\n    function generateDealId(uint _amount, address[] memory _participants, uint _nonce)\n    public\n    returns (bytes32) {\n        bytes memory _message = _generateDealIdMessage(_amount, _participants, _nonce);\n        bytes32 _dealId = keccak256(_message);\n        return _dealId;\n    }\n\n    /**\n    * Distribute funds by executing Deal.\n    * Callable only by the Salad secret contract\n    *\n    * @param _dealId The DealId, a unique identifier and fingerprint for the Deal parameters\n    * @param _recipients The shuffled recipient addresses\n    */\n    function distribute(uint256 _dealId, address payable[] memory _recipients)\n    public {\n        //    onlyEnigma() {\n\n        // Distribute the deposits to destination addresses\n        // TODO: This conversion is only necessary because of an Enigma callback bug with bytes32\n        bytes32 dealId = bytes32(_dealId);\n        require(deals[dealId].status == DealStatus.Executable, \"Deal is not executable.\");\n        deals[dealId].recipients = _recipients;\n        address[] memory _npRecipients = new address[](_recipients.length);\n        for (uint i = 0; i < _recipients.length; i++) {\n            require(balances[deals[dealId].participants[i]].amount >= deals[dealId].deposit, \"Not enough deposit to transfer.\");\n            // Transferring the deal's deposit amount to each recipient\n            require(_recipients[i].send(deals[dealId].deposit), \"Unable to distribute deposit\");\n            balances[deals[dealId].participants[i]].amount = balances[deals[dealId].participants[i]].amount.sub(deals[dealId].deposit);\n            _npRecipients[i] = _recipients[i];\n        }\n        deals[dealId].status = DealStatus.Executed;\n        lastExecutionBlockNumber = block.number;\n        emit Distribute(dealId, deals[dealId].deposit, _npRecipients);\n    }\n\n    /**\n    * Query Deals by status code\n    *\n    * @param _status The deal status code\n    */\n    function listDeals(uint8 _status)\n    public\n    view\n    returns (bytes32[] memory, address[] memory, uint[] memory, uint[] memory) {\n        // First pass calculates the capacity of the result lists\n        uint cpt = 0;\n        for (uint i = 0; i < dealIds.length; i++) {\n            bytes32 _dealId = dealIds[i];\n            if (uint8(deals[_dealId].status) == _status) {\n                cpt = cpt.add(1);\n            }\n        }\n        // A list of deals with their key properties\n        bytes32[] memory dealId = new bytes32[](cpt);\n        address[] memory organizer = new address[](cpt);\n        uint[] memory deposit = new uint[](cpt);\n        uint[] memory numParticipants = new uint[](cpt);\n        uint j = 0;\n        for (uint i = 0; i < dealIds.length; i++) {\n            bytes32 _dealId = dealIds[i];\n            if (uint8(deals[_dealId].status) == _status) {\n                dealId[j] = _dealId;\n                organizer[j] = deals[_dealId].organizer;\n                deposit[j] = deals[_dealId].deposit;\n                numParticipants[j] = deals[_dealId].participants.length;\n                j = j.add(1);\n            }\n        }\n        return (dealId, organizer, deposit, numParticipants);\n    }\n\n    /**\n    * Get key attributes of the deal\n    *\n    * @param _dealId The deal Id\n    */\n    function dealStatus(bytes32 _dealId)\n    public\n    view\n    returns (uint, uint, uint) {\n        // TODO: Include status code\n        // Key attributes of a deal\n        uint numParticipants = deals[_dealId].participants.length;\n        uint deposit = deals[_dealId].deposit;\n        uint numDestAddresses = deals[_dealId].recipients.length;\n\n        return (numParticipants, deposit, numDestAddresses);\n    }\n}\n",
  "sourcePath": "/Users/taariq/code/enigma-protocol/salad_11.15/smart_contracts/Salad.sol",
  "compiler": {
    "name": "solc",
    "version": "0.5.12+commit.7709ece9.Emscripten.clang"
  },
  "schemaVersion": "3.0.19",
  "updatedAt": "2020-01-29T03:20:14.133Z",
  "networkType": "ethereum",
  "devdoc": {
    "methods": {
      "dealStatus(bytes32)": {
        "params": {
          "_dealId": "The deal Id"
        }
      },
      "distribute(uint256,address[])": {
        "params": {
          "_dealId": "The DealId, a unique identifier and fingerprint for the Deal parameters",
          "_recipients": "The shuffled recipient addresses"
        }
      },
      "generateDealId(uint256,address[],uint256)": {
        "params": {
          "_amount": "The required deposit amount (in Wei)",
          "_nonce": "The nonce (operator's transaction count)",
          "_participants": "The sender addresses of Deal participants"
        }
      },
      "getParticipantBalance(address)": {
        "params": {
          "_account": "The participant address"
        }
      },
      "isOwner()": {
        "details": "Returns true if the caller is the current owner."
      },
      "listDeals(uint8)": {
        "params": {
          "_status": "The deal status code"
        }
      },
      "newDeal(uint256,address[],uint256)": {
        "params": {
          "_amount": "The required deposit amount (in Wei)",
          "_nonce": "The nonce (operator's transaction count)",
          "_participants": "The sender addresses of Deal participants"
        }
      },
      "owner()": {
        "details": "Returns the address of the current owner."
      },
      "renounceOwnership()": {
        "details": "Leaves the contract without owner. It will not be possible to call `onlyOwner` functions anymore. Can only be called by the current owner.     * NOTE: Renouncing ownership will leave the contract without an owner, thereby removing any functionality that is only available to the owner."
      },
      "transferOwnership(address)": {
        "details": "Transfers ownership of the contract to a new account (`newOwner`). Can only be called by the current owner."
      }
    }
  },
  "userdoc": {
    "methods": {
      "dealStatus(bytes32)": {
        "notice": "Get key attributes of the deal"
      },
      "distribute(uint256,address[])": {
        "notice": "Distribute funds by executing Deal. Callable only by the Salad secret contract"
      },
      "generateDealId(uint256,address[],uint256)": {
        "notice": "Generate a DealId H(Amount, Sender Addresses, Relayer Ethereum Address, Relayer Ethereum Nonce)"
      },
      "getParticipantBalance(address)": {
        "notice": "Get own balance (in Wei)"
      },
      "listDeals(uint8)": {
        "notice": "Query Deals by status code"
      },
      "makeDeposit()": {
        "notice": "Make deposit to own balance for participation in Deals"
      },
      "newDeal(uint256,address[],uint256)": {
        "notice": "Create a new Pending Deal"
      },
      "withdraw()": {
        "notice": "Withdraw from own balance"
      }
    }
  }
}