{
  "contractName": "Sample",
  "abi": [
    {
      "constant": true,
      "inputs": [],
      "name": "stateBool",
      "outputs": [
        {
          "name": "",
          "type": "bool"
        }
      ],
      "payable": false,
      "stateMutability": "view",
      "type": "function"
    },
    {
      "constant": true,
      "inputs": [],
      "name": "stateInt",
      "outputs": [
        {
          "name": "",
          "type": "uint256"
        }
      ],
      "payable": false,
      "stateMutability": "view",
      "type": "function"
    },
    {
      "constant": true,
      "inputs": [],
      "name": "counter",
      "outputs": [
        {
          "name": "",
          "type": "uint256"
        }
      ],
      "payable": false,
      "stateMutability": "view",
      "type": "function"
    },
    {
      "inputs": [],
      "payable": false,
      "stateMutability": "nonpayable",
      "type": "constructor"
    },
    {
      "constant": false,
      "inputs": [
        {
          "name": "_stateInt",
          "type": "uint256"
        },
        {
          "name": "_stateBool",
          "type": "bool"
        }
      ],
      "name": "setStateVar",
      "outputs": [],
      "payable": false,
      "stateMutability": "nonpayable",
      "type": "function"
    },
    {
      "constant": false,
      "inputs": [
        {
          "name": "_stateInt",
          "type": "uint256"
        },
        {
          "name": "_stateBool",
          "type": "bool"
        }
      ],
      "name": "setStateVarGasFail",
      "outputs": [],
      "payable": false,
      "stateMutability": "nonpayable",
      "type": "function"
    },
    {
      "constant": false,
      "inputs": [
        {
          "name": "_stateInt",
          "type": "uint256"
        },
        {
          "name": "_stateBool",
          "type": "bool"
        }
      ],
      "name": "setStateVarRevert",
      "outputs": [],
      "payable": false,
      "stateMutability": "nonpayable",
      "type": "function"
    },
    {
      "constant": false,
      "inputs": [],
      "name": "incrementCounter",
      "outputs": [],
      "payable": false,
      "stateMutability": "nonpayable",
      "type": "function"
    }
  ],
  "bytecode": "0x608060405234801561001057600080fd5b5060016000819055805460ff191690556102ec8061002f6000396000f3fe608060405234801561001057600080fd5b506004361061007d5760003560e01c80635b34b9661161005b5780635b34b966146100ca57806361bc221a146100d2578063724aeb39146100da5780639c43ba38146100ed5761007d565b806304deee4014610082578063136cace9146100a05780631e8b9d11146100b5575b600080fd5b61008a610100565b6040516100979190610255565b60405180910390f35b6100b36100ae3660046101ca565b610109565b005b6100bd610122565b6040516100979190610273565b6100b3610128565b6100bd610133565b6100b36100e83660046101ca565b610139565b6100b36100fb3660046101ca565b610170565b60015460ff1681565b6000919091556001805460ff1916911515919091179055565b60005481565b600280546001019055565b60025481565b60008290556001805460ff1916821515179055604051600160e51b62461bcd02815261016790600401610263565b60405180910390fd5b60008281556001805460ff19168315151790555b620f42408110156101a95760008190556001805460ff19168183161517815501610184565b505050565b80356101b981610292565b92915050565b80356101b9816102a9565b600080604083850312156101dd57600080fd5b60006101e985856101bf565b92505060206101fa858286016101ae565b9150509250929050565b61020d8161028a565b82525050565b6000610220601283610281565b7f4661696c656420696e206574682063616c6c0000000000000000000000000000815260200192915050565b61020d8161028f565b602081016101b98284610204565b602080825281016101b981610213565b602081016101b9828461024c565b90815260200190565b151590565b90565b61029b8161028a565b81146102a657600080fd5b50565b61029b8161028f56fea265627a7a72305820659cb2155ba527eea9cb1991b0d621853b930a3b4dc313629dd6ce8a927f6b3c6c6578706572696d656e74616cf50037",
  "source": "pragma solidity ^0.5.0;\npragma experimental ABIEncoderV2;\n\ncontract Sample {\n    uint public stateInt;\n    bool public stateBool;\n    uint public counter;\n\n    constructor() public {\n        stateInt = 1;\n        stateBool = false;\n    }\n\n    function setStateVar(uint _stateInt, bool _stateBool) public {\n        stateInt = _stateInt;\n        stateBool = _stateBool;\n    }\n\n    // Used in unit tests to simulate graceful deploy and compute receipt handling of callbacks that fail due to\n    // out of gas errors. This function contains a very large loop, that eventually fails due to out of gas.\n    function setStateVarGasFail(uint _stateInt, bool _stateBool) public {\n        stateInt = _stateInt;\n        stateBool = _stateBool;\n        for (uint i = 0; i < 1000000; i++) {\n            stateInt = i;\n            stateBool = (i % 2 == 0);\n        }\n    }\n\n    function setStateVarRevert(uint _stateInt, bool _stateBool) public {\n        stateInt = _stateInt;\n        stateBool = _stateBool;\n        require(false, \"Failed in eth call\");\n    }\n\n    function incrementCounter() public {\n        counter++;\n    }\n}\n",
  "sourcePath": "/root/enigma-contract/contracts/Sample.sol",
  "compiler": {
    "name": "solc",
    "version": "0.5.8+commit.23d335f2.Emscripten.clang"
  },
  "schemaVersion": "3.0.16",
  "updatedAt": "2020-01-29T03:15:53.422Z",
  "devdoc": {
    "methods": {}
  },
  "userdoc": {
    "methods": {}
  }
}