{
  "contractName": "Getters",
  "abi": [
    {
      "constant": true,
      "inputs": [],
      "name": "getSigningAddress",
      "outputs": [
        {
          "name": "",
          "type": "address"
        }
      ],
      "payable": false,
      "stateMutability": "view",
      "type": "function"
    },
    {
      "constant": true,
      "inputs": [
        {
          "name": "_worker",
          "type": "address"
        }
      ],
      "name": "getWorker",
      "outputs": [
        {
          "components": [
            {
              "name": "signer",
              "type": "address"
            },
            {
              "name": "status",
              "type": "uint8"
            },
            {
              "name": "report",
              "type": "bytes"
            },
            {
              "name": "balance",
              "type": "uint256"
            },
            {
              "components": [
                {
                  "name": "workerEventType",
                  "type": "uint8"
                },
                {
                  "name": "blockNumber",
                  "type": "uint256"
                },
                {
                  "name": "balance",
                  "type": "uint256"
                }
              ],
              "name": "workerLogs",
              "type": "tuple[]"
            }
          ],
          "name": "",
          "type": "tuple"
        }
      ],
      "payable": false,
      "stateMutability": "view",
      "type": "function"
    },
    {
      "constant": true,
      "inputs": [
        {
          "name": "_signer",
          "type": "address"
        }
      ],
      "name": "getWorkerFromSigningAddress",
      "outputs": [
        {
          "name": "",
          "type": "address"
        },
        {
          "components": [
            {
              "name": "signer",
              "type": "address"
            },
            {
              "name": "status",
              "type": "uint8"
            },
            {
              "name": "report",
              "type": "bytes"
            },
            {
              "name": "balance",
              "type": "uint256"
            },
            {
              "components": [
                {
                  "name": "workerEventType",
                  "type": "uint8"
                },
                {
                  "name": "blockNumber",
                  "type": "uint256"
                },
                {
                  "name": "balance",
                  "type": "uint256"
                }
              ],
              "name": "workerLogs",
              "type": "tuple[]"
            }
          ],
          "name": "",
          "type": "tuple"
        }
      ],
      "payable": false,
      "stateMutability": "view",
      "type": "function"
    },
    {
      "constant": true,
      "inputs": [
        {
          "name": "_sender",
          "type": "address"
        }
      ],
      "name": "getUserTaskDeployments",
      "outputs": [
        {
          "name": "",
          "type": "uint256"
        }
      ],
      "payable": false,
      "stateMutability": "view",
      "type": "function"
    },
    {
      "constant": true,
      "inputs": [],
      "name": "getEpochSize",
      "outputs": [
        {
          "name": "",
          "type": "uint256"
        }
      ],
      "payable": false,
      "stateMutability": "view",
      "type": "function"
    },
    {
      "constant": true,
      "inputs": [],
      "name": "getTaskTimeoutSize",
      "outputs": [
        {
          "name": "",
          "type": "uint256"
        }
      ],
      "payable": false,
      "stateMutability": "view",
      "type": "function"
    },
    {
      "constant": true,
      "inputs": [
        {
          "name": "_taskId",
          "type": "bytes32"
        }
      ],
      "name": "getTaskRecord",
      "outputs": [
        {
          "components": [
            {
              "name": "sender",
              "type": "address"
            },
            {
              "name": "inputsHash",
              "type": "bytes32"
            },
            {
              "name": "outputHash",
              "type": "bytes32"
            },
            {
              "name": "gasLimit",
              "type": "uint64"
            },
            {
              "name": "gasPx",
              "type": "uint64"
            },
            {
              "name": "blockNumber",
              "type": "uint256"
            },
            {
              "name": "status",
              "type": "uint8"
            },
            {
              "name": "proof",
              "type": "bytes"
            }
          ],
          "name": "",
          "type": "tuple"
        }
      ],
      "payable": false,
      "stateMutability": "view",
      "type": "function"
    },
    {
      "constant": true,
      "inputs": [
        {
          "name": "_scAddr",
          "type": "bytes32"
        }
      ],
      "name": "getSecretContract",
      "outputs": [
        {
          "components": [
            {
              "name": "owner",
              "type": "address"
            },
            {
              "name": "preCodeHash",
              "type": "bytes32"
            },
            {
              "name": "codeHash",
              "type": "bytes32"
            },
            {
              "name": "stateDeltaHashes",
              "type": "bytes32[]"
            },
            {
              "name": "status",
              "type": "uint8"
            }
          ],
          "name": "",
          "type": "tuple"
        }
      ],
      "payable": false,
      "stateMutability": "view",
      "type": "function"
    },
    {
      "constant": true,
      "inputs": [],
      "name": "getWorkersParams",
      "outputs": [
        {
          "components": [
            {
              "name": "firstBlockNumber",
              "type": "uint256"
            },
            {
              "name": "workers",
              "type": "address[]"
            },
            {
              "name": "stakes",
              "type": "uint256[]"
            },
            {
              "name": "seed",
              "type": "uint256"
            }
          ],
          "name": "",
          "type": "tuple[5]"
        }
      ],
      "payable": false,
      "stateMutability": "view",
      "type": "function"
    },
    {
      "constant": true,
      "inputs": [],
      "name": "getAllSecretContractAddresses",
      "outputs": [
        {
          "name": "",
          "type": "bytes32[]"
        }
      ],
      "payable": false,
      "stateMutability": "view",
      "type": "function"
    }
  ],
  "bytecode": "0x608060405234801561001057600080fd5b50611161806100206000396000f3fe608060405234801561001057600080fd5b506004361061009e5760003560e01c8063a0c3998211610066578063a0c399821461012b578063c011b1c31461014c578063d855a5791461016c578063df4da46114610181578063f9a9b7ae146101895761009e565b8063550baa2f146100a35780635f25f850146100c157806370266a47146100d65780637624281e146100eb5780638ed057371461010b575b600080fd5b6100ab61019c565b6040516100b89190610fb2565b60405180910390f35b6100c96101f7565b6040516100b89190611007565b6100de6101fd565b6040516100b89190610fc3565b6100fe6100f9366004610a88565b610317565b6040516100b89190610fd4565b61011e610119366004610a88565b6103de565b6040516100b89190610fe5565b61013e610139366004610a62565b61051f565b6040516100b8929190610f92565b61015f61015a366004610a62565b610762565b6040516100b89190610ff6565b610174610913565b6040516100b89190610f84565b6100c961092f565b6100c9610197366004610a62565b610935565b606060006019018054806020026020016040519081016040528092919081815260200182805480156101ed57602002820191906000526020600020905b8154815260200190600101908083116101d9575b5050505050905090565b60025490565b610205610950565b6040805160a08101909152600460056000835b8282101561030e57838260040201604051806080016040529081600082015481526020016001820180548060200260200160405190810160405280929190818152602001828054801561029457602002820191906000526020600020905b81546001600160a01b03168152600190910190602001808311610276575b50505050508152602001600282018054806020026020016040519081016040528092919081815260200182805480156102ec57602002820191906000526020600020905b8154815260200190600101908083116102d8575b5050505050815260200160038201548152505081526020019060010190610218565b50505050905090565b61031f61097e565b6000828152601c6020908152604091829020825160a08101845281546001600160a01b0316815260018201548184015260028201548185015260038201805485518186028101860190965280865291949293606086019392908301828280156103a757602002820191906000526020600020905b815481526020019060010190808311610393575b5050509183525050600482015460209091019060ff1660018111156103c857fe5b60018111156103d357fe5b90525090505b919050565b6103e66109a9565b6000828152601b602090815260409182902082516101008101845281546001600160a01b03168152600182015492810192909252600281015492820192909252600382015467ffffffffffffffff808216606084015268010000000000000000909104166080820152600482015460a082015260058083015491929160c084019160ff9091169081111561047657fe5b600581111561048157fe5b815260068201805460408051602060026001851615610100026000190190941693909304601f810184900484028201840190925281815293820193929183018282801561050f5780601f106104e45761010080835404028352916020019161050f565b820191906000526020600020905b8154815290600101906020018083116104f257829003601f168201915b5050505050815250509050919050565b60006105296109ee565b60006105336109ee565b60005b6018548110156107575760188054601a916000918490811061055457fe5b60009182526020808320909101546001600160a01b039081168452838201949094526040928301909120825160a081019093528054938416835291929083019060ff600160a01b9091041660028111156105aa57fe5b60028111156105b557fe5b8152602001600182018054600181600116156101000203166002900480601f0160208091040260200160405190810160405280929190818152602001828054600181600116156101000203166002900480156106525780601f1061062757610100808354040283529160200191610652565b820191906000526020600020905b81548152906001019060200180831161063557829003601f168201915b505050505081526020016002820154815260200160038201805480602002602001604051908101604052809291908181526020016000905b828210156106fd57838290600052602060002090600302016040518060600160405290816000820160009054906101000a900460ff1660038111156106cb57fe5b60038111156106d657fe5b8152602001600182015481526020016002820154815250508152602001906001019061068a565b50505050815250509150856001600160a01b031682600001516001600160a01b0316141561074f57601880548290811061073357fe5b6000918252602090912001546001600160a01b03169250610757565b600101610536565b509092509050915091565b61076a6109ee565b6001600160a01b038281166000908152601a6020908152604091829020825160a0810190935280549384168352919290830190600160a01b900460ff1660028111156107b257fe5b60028111156107bd57fe5b8152602001600182018054600181600116156101000203166002900480601f01602080910402602001604051908101604052809291908181526020018280546001816001161561010002031660029004801561085a5780601f1061082f5761010080835404028352916020019161085a565b820191906000526020600020905b81548152906001019060200180831161083d57829003601f168201915b505050505081526020016002820154815260200160038201805480602002602001604051908101604052809291908181526020016000905b8282101561090557838290600052602060002090600302016040518060600160405290816000820160009054906101000a900460ff1660038111156108d357fe5b60038111156108de57fe5b81526020016001820154815260200160028201548152505081526020019060010190610892565b505050915250909392505050565b336000908152601a60205260409020546001600160a01b031690565b60015490565b6001600160a01b03166000908152601d602052604090205490565b6040518061028001604052806005905b610968610a1e565b8152602001906001900390816109605790505090565b6040805160a08101825260008082526020820181905291810182905260608082015290608082015290565b6040805161010081018252600080825260208201819052918101829052606081018290526080810182905260a081018290529060c08201908152602001606081525090565b6040805160a081019091526000808252602082019081526020016060815260200160008152602001606081525090565b6040518060800160405280600081526020016060815260200160608152602001600081525090565b8035610a518161110a565b92915050565b8035610a518161111e565b600060208284031215610a7457600080fd5b6000610a808484610a46565b949350505050565b600060208284031215610a9a57600080fd5b6000610a808484610a57565b6000610ab28383610aed565b505060200190565b6000610ab28383610cfb565b6000610ad28383610e77565b505060600190565b6000610ae68383610f20565b9392505050565b610af681611031565b82525050565b6000610b078261101e565b610b118185611028565b9350610b1c83611015565b8060005b83811015610b4a578151610b348882610aa6565b9750610b3f83611015565b925050600101610b20565b509495945050505050565b6000610b608261101e565b610b6a8185611028565b9350610b7583611015565b8060005b83811015610b4a578151610b8d8882610aba565b9750610b9883611015565b925050600101610b79565b6000610bae8261101e565b610bb88185611028565b9350610bc383611015565b8060005b83811015610b4a578151610bdb8882610aba565b9750610be683611015565b925050600101610bc7565b6000610bfc8261101e565b610c068185611028565b9350610c1183611015565b8060005b83811015610b4a578151610c298882610ac6565b9750610c3483611015565b925050600101610c15565b6000610c4a82611022565b610c5481856103d9565b935083602082028501610c668561101b565b8060005b85811015610ca05784840389528151610c838582610ada565b9450610c8e83611015565b60209a909a0199925050600101610c6a565b5091979650505050505050565b6000610cb88261101e565b610cc28185611028565b9350610ccd83611015565b8060005b83811015610b4a578151610ce58882610aba565b9750610cf083611015565b925050600101610cd1565b610af68161101b565b6000610d0f8261101e565b610d198185611028565b9350610d298185602086016110a9565b610d32816110d5565b9093019392505050565b610af68161107d565b610af681611088565b610af681611093565b610af68161109e565b805160009060a0840190610d748582610aed565b506020830151610d876020860182610cfb565b506040830151610d9a6040860182610cfb565b5060608301518482036060860152610db28282610ba3565b9150506080830151610dc76080860182610d3c565b509392505050565b8051600090610100840190610de48582610aed565b506020830151610df76020860182610cfb565b506040830151610e0a6040860182610cfb565b506060830151610e1d6060860182610f7b565b506080830151610e306080860182610f7b565b5060a0830151610e4360a0860182610cfb565b5060c0830151610e5660c0860182610d45565b5060e083015184820360e0860152610e6e8282610d04565b95945050505050565b80516060830190610e888482610d4e565b506020820151610e9b6020850182610cfb565b506040820151610eae6040850182610cfb565b50505050565b805160009060a0840190610ec88582610aed565b506020830151610edb6020860182610d57565b5060408301518482036040860152610ef38282610d04565b9150506060830151610f086060860182610cfb565b5060808301518482036080860152610e6e8282610bf1565b80516000906080840190610f348582610cfb565b5060208301518482036020860152610f4c8282610afc565b91505060408301518482036040860152610f668282610cad565b9150506060830151610dc76060860182610cfb565b610af681611070565b60208101610a518284610aed565b60408101610fa08285610aed565b8181036020830152610a808184610eb4565b60208082528101610ae68184610b55565b60208082528101610ae68184610c3f565b60208082528101610ae68184610d60565b60208082528101610ae68184610dcf565b60208082528101610ae68184610eb4565b60208101610a518284610cfb565b60200190565b90565b5190565b50600590565b90815260200190565b6000610a5182611064565b806103d9816110df565b806103d9816110ec565b806103d9816110f6565b806103d981611100565b6001600160a01b031690565b67ffffffffffffffff1690565b6000610a518261103c565b6000610a5182611046565b6000610a5182611050565b6000610a518261105a565b60005b838110156110c45781810151838201526020016110ac565b83811115610eae5750506000910152565b601f01601f191690565b600281106110e957fe5b50565b600681106110e957fe5b600481106110e957fe5b600381106110e957fe5b61111381611031565b81146110e957600080fd5b6111138161101b56fea265627a7a723058202dbe486c902019c2d3e3afe52c29ef62dbc6ec42851622596ef3ca4ca2e72ecd6c6578706572696d656e74616cf50037",
  "source": "pragma solidity ^0.5.0;\npragma experimental ABIEncoderV2;\n\nimport {EnigmaCommon} from \"./EnigmaCommon.sol\";\nimport {EnigmaStorage} from \"./EnigmaStorage.sol\";\n\n/**\n * @author Enigma\n *\n * Getter functions to be used by Enigma library to access state variables\n */\ncontract Getters is EnigmaStorage {\n    /**\n    * Get signing address of calling worker\n    *\n    * @return Signing address\n    */\n    function getSigningAddress() public view returns (address) {\n        return state.workers[msg.sender].signer;\n    }\n\n    /**\n    * Get Worker struct from a given worker's ethereum address\n    *\n    * @param _worker Worker's ethereum address\n    * @return Worker struct\n    */\n    function getWorker(address _worker) public view returns (EnigmaCommon.Worker memory) {\n        return state.workers[_worker];\n    }\n\n    /**\n    * Get Worker struct from a given worker's signing address\n    *\n    * @param _signer Worker's signing address\n    * @return Ethereum address\n    * @return Worker struct\n    */\n    function getWorkerFromSigningAddress(address _signer) public view returns (address, EnigmaCommon.Worker memory) {\n        address account;\n        EnigmaCommon.Worker memory worker;\n        for (uint i = 0; i < state.workerAddresses.length; i++) {\n            worker = state.workers[state.workerAddresses[i]];\n            if (worker.signer == _signer) {\n                account = state.workerAddresses[i];\n                break;\n            }\n        }\n        return (account, worker);\n    }\n\n    /**\n    * Get the current number/index (used as unique nonce value) of task deployments for a given user user\n    *\n    * @param _sender Task sender's ethereum address\n    * @return Current number for task deployments for user\n    */\n    function getUserTaskDeployments(address _sender) public view returns (uint) {\n        return state.userTaskDeployments[_sender];\n    }\n\n    /**\n    * Get the epoch block size\n    *\n    * @return Epoch size\n    */\n    function getEpochSize() public view returns (uint) {\n        return state.epochSize;\n    }\n\n    /**\n    * Get the task timeout size\n    *\n    * @return task timeout\n    */\n    function getTaskTimeoutSize() public view returns (uint) {\n        return state.taskTimeoutSize;\n    }\n\n    /**\n    * Get a TaskRecord struct given a particular task's ID\n    *\n    * @param _taskId Unique identifier for a given task\n    * @return TaskRecord struct\n    */\n    function getTaskRecord(bytes32 _taskId) public view returns (EnigmaCommon.TaskRecord memory) {\n        return state.tasks[_taskId];\n    }\n\n    /**\n    * Get a SecretContract struct given a particular secret contract address\n    *\n    * @param _scAddr Secret contract address\n    * @return SecretContract struct\n    */\n    function getSecretContract(bytes32 _scAddr) public view returns (EnigmaCommon.SecretContract memory) {\n        return state.contracts[_scAddr];\n    }\n\n    /**\n    * Get epoch-based history of worker params information\n    *\n    * @return Array of WorkersParams structs\n    */\n    function getWorkersParams() public view returns (EnigmaCommon.WorkersParams[5] memory) {\n        return state.workersParams;\n    }\n\n    /**\n    * Get all secret contract addresses\n    *\n    * @return Array of secret contract addresses\n    */\n    function getAllSecretContractAddresses() public view returns (bytes32[] memory) {\n        return state.scAddresses;\n    }\n}\n",
  "sourcePath": "/root/enigma-contract/contracts/impl/Getters.sol",
  "compiler": {
    "name": "solc",
    "version": "0.5.8+commit.23d335f2.Emscripten.clang"
  },
  "schemaVersion": "3.0.16",
  "updatedAt": "2019-12-16T04:28:06.988Z",
  "devdoc": {
    "author": "Enigma * Getter functions to be used by Enigma library to access state variables",
    "methods": {
      "getAllSecretContractAddresses()": {
        "return": "Array of secret contract addresses"
      },
      "getEpochSize()": {
        "return": "Epoch size"
      },
      "getSecretContract(bytes32)": {
        "params": {
          "_scAddr": "Secret contract address"
        },
        "return": "SecretContract struct"
      },
      "getSigningAddress()": {
        "return": "Signing address"
      },
      "getTaskRecord(bytes32)": {
        "params": {
          "_taskId": "Unique identifier for a given task"
        },
        "return": "TaskRecord struct"
      },
      "getTaskTimeoutSize()": {
        "return": "task timeout"
      },
      "getUserTaskDeployments(address)": {
        "params": {
          "_sender": "Task sender's ethereum address"
        },
        "return": "Current number for task deployments for user"
      },
      "getWorker(address)": {
        "params": {
          "_worker": "Worker's ethereum address"
        },
        "return": "Worker struct"
      },
      "getWorkerFromSigningAddress(address)": {
        "params": {
          "_signer": "Worker's signing address"
        },
        "return": "Ethereum addressWorker struct"
      },
      "getWorkersParams()": {
        "return": "Array of WorkersParams structs"
      }
    }
  },
  "userdoc": {
    "methods": {
      "getAllSecretContractAddresses()": {
        "notice": "Get all secret contract addresses"
      },
      "getEpochSize()": {
        "notice": "Get the epoch block size"
      },
      "getSecretContract(bytes32)": {
        "notice": "Get a SecretContract struct given a particular secret contract address"
      },
      "getSigningAddress()": {
        "notice": "Get signing address of calling worker"
      },
      "getTaskRecord(bytes32)": {
        "notice": "Get a TaskRecord struct given a particular task's ID"
      },
      "getTaskTimeoutSize()": {
        "notice": "Get the task timeout size"
      },
      "getUserTaskDeployments(address)": {
        "notice": "Get the current number/index (used as unique nonce value) of task deployments for a given user user"
      },
      "getWorker(address)": {
        "notice": "Get Worker struct from a given worker's ethereum address"
      },
      "getWorkerFromSigningAddress(address)": {
        "notice": "Get Worker struct from a given worker's signing address"
      },
      "getWorkersParams()": {
        "notice": "Get epoch-based history of worker params information"
      }
    }
  }
}